{
  "abi": [
    {
      "type": "constructor",
      "inputs": [
        {
          "name": "_governance",
          "type": "address",
          "internalType": "address"
        }
      ],
      "stateMutability": "nonpayable"
    },
    {
      "type": "function",
      "name": "GOVERNANCE_TOKEN",
      "inputs": [],
      "outputs": [
        {
          "name": "",
          "type": "address",
          "internalType": "contract IERC20"
        }
      ],
      "stateMutability": "view"
    },
    {
      "type": "function",
      "name": "QUORUM_PERCENTAGE",
      "inputs": [],
      "outputs": [
        {
          "name": "",
          "type": "uint256",
          "internalType": "uint256"
        }
      ],
      "stateMutability": "view"
    },
    {
      "type": "function",
      "name": "VOTING_DURATION",
      "inputs": [],
      "outputs": [
        {
          "name": "",
          "type": "uint256",
          "internalType": "uint256"
        }
      ],
      "stateMutability": "view"
    },
    {
      "type": "function",
      "name": "createProposal",
      "inputs": [
        {
          "name": "_description",
          "type": "string",
          "internalType": "string"
        },
        {
          "name": "_target",
          "type": "address",
          "internalType": "address"
        },
        {
          "name": "_callData",
          "type": "bytes",
          "internalType": "bytes"
        }
      ],
      "outputs": [],
      "stateMutability": "nonpayable"
    },
    {
      "type": "function",
      "name": "executeProposal",
      "inputs": [
        {
          "name": "_id",
          "type": "uint256",
          "internalType": "uint256"
        }
      ],
      "outputs": [],
      "stateMutability": "nonpayable"
    },
    {
      "type": "function",
      "name": "getProposal",
      "inputs": [
        {
          "name": "_id",
          "type": "uint256",
          "internalType": "uint256"
        }
      ],
      "outputs": [
        {
          "name": "",
          "type": "tuple",
          "internalType": "struct DAOContract.Proposal",
          "components": [
            {
              "name": "id",
              "type": "uint256",
              "internalType": "uint256"
            },
            {
              "name": "description",
              "type": "string",
              "internalType": "string"
            },
            {
              "name": "executed",
              "type": "bool",
              "internalType": "bool"
            },
            {
              "name": "positiveVotes",
              "type": "uint256",
              "internalType": "uint256"
            },
            {
              "name": "negativeVotes",
              "type": "uint256",
              "internalType": "uint256"
            },
            {
              "name": "neutralVotes",
              "type": "uint256",
              "internalType": "uint256"
            },
            {
              "name": "deadline",
              "type": "uint256",
              "internalType": "uint256"
            },
            {
              "name": "target",
              "type": "address",
              "internalType": "address"
            },
            {
              "name": "_callData",
              "type": "bytes",
              "internalType": "bytes"
            }
          ]
        }
      ],
      "stateMutability": "view"
    },
    {
      "type": "function",
      "name": "hasVoted",
      "inputs": [
        {
          "name": "",
          "type": "uint256",
          "internalType": "uint256"
        },
        {
          "name": "",
          "type": "address",
          "internalType": "address"
        }
      ],
      "outputs": [
        {
          "name": "",
          "type": "bool",
          "internalType": "bool"
        }
      ],
      "stateMutability": "view"
    },
    {
      "type": "function",
      "name": "owner",
      "inputs": [],
      "outputs": [
        {
          "name": "",
          "type": "address",
          "internalType": "address"
        }
      ],
      "stateMutability": "view"
    },
    {
      "type": "function",
      "name": "proposalCanBeExecuted",
      "inputs": [
        {
          "name": "_id",
          "type": "uint256",
          "internalType": "uint256"
        }
      ],
      "outputs": [],
      "stateMutability": "view"
    },
    {
      "type": "function",
      "name": "proposalCount",
      "inputs": [],
      "outputs": [
        {
          "name": "",
          "type": "uint256",
          "internalType": "uint256"
        }
      ],
      "stateMutability": "view"
    },
    {
      "type": "function",
      "name": "proposals",
      "inputs": [
        {
          "name": "",
          "type": "uint256",
          "internalType": "uint256"
        }
      ],
      "outputs": [
        {
          "name": "id",
          "type": "uint256",
          "internalType": "uint256"
        },
        {
          "name": "description",
          "type": "string",
          "internalType": "string"
        },
        {
          "name": "executed",
          "type": "bool",
          "internalType": "bool"
        },
        {
          "name": "positiveVotes",
          "type": "uint256",
          "internalType": "uint256"
        },
        {
          "name": "negativeVotes",
          "type": "uint256",
          "internalType": "uint256"
        },
        {
          "name": "neutralVotes",
          "type": "uint256",
          "internalType": "uint256"
        },
        {
          "name": "deadline",
          "type": "uint256",
          "internalType": "uint256"
        },
        {
          "name": "target",
          "type": "address",
          "internalType": "address"
        },
        {
          "name": "_callData",
          "type": "bytes",
          "internalType": "bytes"
        }
      ],
      "stateMutability": "view"
    },
    {
      "type": "function",
      "name": "renounceOwnership",
      "inputs": [],
      "outputs": [],
      "stateMutability": "nonpayable"
    },
    {
      "type": "function",
      "name": "transferOwnership",
      "inputs": [
        {
          "name": "newOwner",
          "type": "address",
          "internalType": "address"
        }
      ],
      "outputs": [],
      "stateMutability": "nonpayable"
    },
    {
      "type": "function",
      "name": "voteOnProposal",
      "inputs": [
        {
          "name": "_id",
          "type": "uint256",
          "internalType": "uint256"
        },
        {
          "name": "_vote",
          "type": "uint8",
          "internalType": "uint8"
        }
      ],
      "outputs": [],
      "stateMutability": "nonpayable"
    },
    {
      "type": "event",
      "name": "OwnershipTransferred",
      "inputs": [
        {
          "name": "previousOwner",
          "type": "address",
          "indexed": true,
          "internalType": "address"
        },
        {
          "name": "newOwner",
          "type": "address",
          "indexed": true,
          "internalType": "address"
        }
      ],
      "anonymous": false
    },
    {
      "type": "event",
      "name": "ProposalCreated",
      "inputs": [
        {
          "name": "id",
          "type": "uint256",
          "indexed": false,
          "internalType": "uint256"
        },
        {
          "name": "description",
          "type": "string",
          "indexed": false,
          "internalType": "string"
        },
        {
          "name": "createdAt",
          "type": "uint256",
          "indexed": false,
          "internalType": "uint256"
        }
      ],
      "anonymous": false
    },
    {
      "type": "event",
      "name": "ProposalExecuted",
      "inputs": [
        {
          "name": "id",
          "type": "uint256",
          "indexed": false,
          "internalType": "uint256"
        },
        {
          "name": "description",
          "type": "string",
          "indexed": false,
          "internalType": "string"
        }
      ],
      "anonymous": false
    },
    {
      "type": "event",
      "name": "Voted",
      "inputs": [
        {
          "name": "id",
          "type": "uint256",
          "indexed": false,
          "internalType": "uint256"
        },
        {
          "name": "voter",
          "type": "address",
          "indexed": false,
          "internalType": "address"
        },
        {
          "name": "voteOption",
          "type": "uint8",
          "indexed": false,
          "internalType": "uint8"
        },
        {
          "name": "voterBalance",
          "type": "uint256",
          "indexed": false,
          "internalType": "uint256"
        }
      ],
      "anonymous": false
    },
    {
      "type": "error",
      "name": "EmptyDescription",
      "inputs": [
        {
          "name": "message",
          "type": "string",
          "internalType": "string"
        }
      ]
    },
    {
      "type": "error",
      "name": "OwnableInvalidOwner",
      "inputs": [
        {
          "name": "owner",
          "type": "address",
          "internalType": "address"
        }
      ]
    },
    {
      "type": "error",
      "name": "OwnableUnauthorizedAccount",
      "inputs": [
        {
          "name": "account",
          "type": "address",
          "internalType": "address"
        }
      ]
    },
    {
      "type": "error",
      "name": "ProposalCanNotBeExecuted",
      "inputs": [
        {
          "name": "message",
          "type": "string",
          "internalType": "string"
        }
      ]
    },
    {
      "type": "error",
      "name": "ProposalNotFound",
      "inputs": [
        {
          "name": "message",
          "type": "string",
          "internalType": "string"
        }
      ]
    }
  ],
  "bytecode": {
    "object": "0x60a06040525f600355348015610013575f5ffd5b50604051612a09380380612a098339818101604052810190610035919061020f565b335f73ffffffffffffffffffffffffffffffffffffffff168173ffffffffffffffffffffffffffffffffffffffff16036100a6575f6040517f1e4fbdf700000000000000000000000000000000000000000000000000000000815260040161009d9190610249565b60405180910390fd5b6100b5816100f060201b60201c565b508073ffffffffffffffffffffffffffffffffffffffff1660808173ffffffffffffffffffffffffffffffffffffffff168152505050610262565b5f5f5f9054906101000a900473ffffffffffffffffffffffffffffffffffffffff169050815f5f6101000a81548173ffffffffffffffffffffffffffffffffffffffff021916908373ffffffffffffffffffffffffffffffffffffffff1602179055508173ffffffffffffffffffffffffffffffffffffffff168173ffffffffffffffffffffffffffffffffffffffff167f8be0079c531659141344cd1fd0a4f28419497f9722a3daafe3b4186f6b6457e060405160405180910390a35050565b5f5ffd5b5f73ffffffffffffffffffffffffffffffffffffffff82169050919050565b5f6101de826101b5565b9050919050565b6101ee816101d4565b81146101f8575f5ffd5b50565b5f81519050610209816101e5565b92915050565b5f60208284031215610224576102236101b1565b5b5f610231848285016101fb565b91505092915050565b610243816101d4565b82525050565b5f60208201905061025c5f83018461023a565b92915050565b6080516127816102885f395f818161086801528181610bf20152610faa01526127815ff3fe608060405234801561000f575f5ffd5b50600436106100e8575f3560e01c8063a438d2081161008a578063ee8a7c1511610064578063ee8a7c151461023e578063efafb22e1461025c578063f2fde38b14610278578063fc71e28414610294576100e8565b8063a438d208146101d2578063c7f758a8146101f0578063da35c66414610220576100e8565b80632efd46d6116100c65780632efd46d61461015c578063438596321461017a578063715018a6146101aa5780638da5cb5b146101b4576100e8565b8063013cf08b146100ec5780630d61b519146101245780632821ff2614610140575b5f5ffd5b61010660048036038101906101019190611322565b6102b0565b60405161011b99989796959493929190611477565b60405180910390f35b61013e60048036038101906101399190611322565b610431565b005b61015a600480360381019061015591906116c3565b61058c565b005b610164610866565b60405161017191906117ab565b60405180910390f35b610194600480360381019061018f91906117c4565b61088a565b6040516101a19190611802565b60405180910390f35b6101b26108b4565b005b6101bc6108c7565b6040516101c9919061181b565b60405180910390f35b6101da6108ee565b6040516101e79190611834565b60405180910390f35b61020a60048036038101906102059190611322565b6108f4565b60405161021791906119d3565b60405180910390f35b610228610aeb565b6040516102359190611834565b60405180910390f35b610246610af1565b6040516102539190611834565b60405180910390f35b61027660048036038101906102719190611a29565b610af6565b005b610292600480360381019061028d9190611a67565b610e43565b005b6102ae60048036038101906102a99190611322565b610ec7565b005b6001602052805f5260405f205f91509050805f0154908060010180546102d590611abf565b80601f016020809104026020016040519081016040528092919081815260200182805461030190611abf565b801561034c5780601f106103235761010080835404028352916020019161034c565b820191905f5260205f20905b81548152906001019060200180831161032f57829003601f168201915b505050505090806002015f9054906101000a900460ff1690806003015490806004015490806005015490806006015490806007015f9054906101000a900473ffffffffffffffffffffffffffffffffffffffff16908060080180546103b090611abf565b80601f01602080910402602001604051908101604052809291908181526020018280546103dc90611abf565b80156104275780601f106103fe57610100808354040283529160200191610427565b820191905f5260205f20905b81548152906001019060200180831161040a57829003601f168201915b5050505050905089565b6104396110df565b8061044381611166565b61044c82610ec7565b5f60015f8481526020019081526020015f2090505f816007015f9054906101000a900473ffffffffffffffffffffffffffffffffffffffff1673ffffffffffffffffffffffffffffffffffffffff16826008016040516104ac9190611b8b565b5f604051808303815f865af19150503d805f81146104e5576040519150601f19603f3d011682016040523d82523d5f602084013e6104ea565b606091505b505090508061052e576040517f08c379a000000000000000000000000000000000000000000000000000000000815260040161052590611beb565b60405180910390fd5b6001826002015f6101000a81548160ff0219169083151502179055507f537137e7fc21556269dc66003ff063d7ee0ce98cf05ad2feddda124690976e95848360010160405161057e929190611c9c565b60405180910390a150505050565b6105946110df565b5f8451116105d7576040517f1fe5995b0000000000000000000000000000000000000000000000000000000081526004016105ce90611d14565b60405180910390fd5b5f73ffffffffffffffffffffffffffffffffffffffff168373ffffffffffffffffffffffffffffffffffffffff1603610645576040517f08c379a000000000000000000000000000000000000000000000000000000000815260040161063c90611d7c565b60405180910390fd5b5f828290501161068a576040517f08c379a000000000000000000000000000000000000000000000000000000000815260040161068190611de4565b60405180910390fd5b60035f81548092919061069c90611e2f565b919050555060405180610120016040528060035481526020018581526020015f151581526020015f81526020015f81526020015f815260200161012c426106e39190611e76565b81526020018473ffffffffffffffffffffffffffffffffffffffff16815260200183838080601f0160208091040260200160405190810160405280939291908181526020018383808284375f81840152601f19601f8201169050808301925050505050505081525060015f60035481526020019081526020015f205f820151815f0155602082015181600101908161077b919061202e565b506040820151816002015f6101000a81548160ff021916908315150217905550606082015181600301556080820151816004015560a0820151816005015560c0820151816006015560e0820151816007015f6101000a81548173ffffffffffffffffffffffffffffffffffffffff021916908373ffffffffffffffffffffffffffffffffffffffff16021790555061010082015181600801908161081f9190612143565b509050507ff5dc0da9afa6d080780a49fd8c680f03d2ddf3c067cd6d0c85360c096644d2d3600354854260405161085893929190612212565b60405180910390a150505050565b7f000000000000000000000000000000000000000000000000000000000000000081565b6002602052815f5260405f20602052805f5260405f205f915091509054906101000a900460ff1681565b6108bc6110df565b6108c55f6111b9565b565b5f5f5f9054906101000a900473ffffffffffffffffffffffffffffffffffffffff16905090565b61012c81565b6108fc611281565b8161090681611166565b60015f8481526020019081526020015f20604051806101200160405290815f820154815260200160018201805461093c90611abf565b80601f016020809104026020016040519081016040528092919081815260200182805461096890611abf565b80156109b35780601f1061098a576101008083540402835291602001916109b3565b820191905f5260205f20905b81548152906001019060200180831161099657829003601f168201915b50505050508152602001600282015f9054906101000a900460ff1615151515815260200160038201548152602001600482015481526020016005820154815260200160068201548152602001600782015f9054906101000a900473ffffffffffffffffffffffffffffffffffffffff1673ffffffffffffffffffffffffffffffffffffffff1673ffffffffffffffffffffffffffffffffffffffff168152602001600882018054610a6390611abf565b80601f0160208091040260200160405190810160405280929190818152602001828054610a8f90611abf565b8015610ada5780601f10610ab157610100808354040283529160200191610ada565b820191905f5260205f20905b815481529060010190602001808311610abd57829003601f168201915b505050505081525050915050919050565b60035481565b600181565b81610b0081611166565b60015f8481526020019081526020015f20600601544210610b56576040517f08c379a0000000000000000000000000000000000000000000000000000000008152600401610b4d90612298565b60405180910390fd5b60025f8481526020019081526020015f205f3373ffffffffffffffffffffffffffffffffffffffff1673ffffffffffffffffffffffffffffffffffffffff1681526020019081526020015f205f9054906101000a900460ff1615610bef576040517f08c379a0000000000000000000000000000000000000000000000000000000008152600401610be690612300565b60405180910390fd5b5f7f000000000000000000000000000000000000000000000000000000000000000073ffffffffffffffffffffffffffffffffffffffff166370a08231336040518263ffffffff1660e01b8152600401610c49919061181b565b602060405180830381865afa158015610c64573d5f5f3e3d5ffd5b505050506040513d601f19601f82011682018060405250810190610c889190612332565b90505f8111610ccc576040517f08c379a0000000000000000000000000000000000000000000000000000000008152600401610cc3906123cd565b60405180910390fd5b5f60015f8681526020019081526020015f20905060018460ff1603610d0a5781816003015f828254610cfe9190611e76565b92505081905550610d9b565b60028460ff1603610d345781816004015f828254610d289190611e76565b92505081905550610d9a565b60038460ff1603610d5e5781816005015f828254610d529190611e76565b92505081905550610d99565b6040517f08c379a0000000000000000000000000000000000000000000000000000000008152600401610d9090612435565b60405180910390fd5b5b5b600160025f8781526020019081526020015f205f3373ffffffffffffffffffffffffffffffffffffffff1673ffffffffffffffffffffffffffffffffffffffff1681526020019081526020015f205f6101000a81548160ff0219169083151502179055507f2635c84c3a8027a303ca6d6e90b1c4a9604754040372414d244aadfa6471751885338685604051610e349493929190612462565b60405180910390a15050505050565b610e4b6110df565b5f73ffffffffffffffffffffffffffffffffffffffff168173ffffffffffffffffffffffffffffffffffffffff1603610ebb575f6040517f1e4fbdf7000000000000000000000000000000000000000000000000000000008152600401610eb2919061181b565b60405180910390fd5b610ec4816111b9565b50565b80610ed181611166565b5f60015f8481526020019081526020015f209050806002015f9054906101000a900460ff1615610f36576040517f08c379a0000000000000000000000000000000000000000000000000000000008152600401610f2d906124ef565b60405180910390fd5b8060060154421015610f7d576040517f08c379a0000000000000000000000000000000000000000000000000000000008152600401610f7490612557565b60405180910390fd5b5f816005015482600401548360030154610f979190611e76565b610fa19190611e76565b90505f606460017f000000000000000000000000000000000000000000000000000000000000000073ffffffffffffffffffffffffffffffffffffffff166318160ddd6040518163ffffffff1660e01b8152600401602060405180830381865afa158015611011573d5f5f3e3d5ffd5b505050506040513d601f19601f820116820180604052508101906110359190612332565b61103f9190612575565b61104991906125e3565b90508082101561108e576040517f08c379a00000000000000000000000000000000000000000000000000000000081526004016110859061265d565b60405180910390fd5b82600401548360030154116110d8576040517f08c379a00000000000000000000000000000000000000000000000000000000081526004016110cf906126c5565b60405180910390fd5b5050505050565b6110e761127a565b73ffffffffffffffffffffffffffffffffffffffff166111056108c7565b73ffffffffffffffffffffffffffffffffffffffff16146111645761112861127a565b6040517f118cdaa700000000000000000000000000000000000000000000000000000000815260040161115b919061181b565b60405180910390fd5b565b5f8111801561117757506003548111155b6111b6576040517f82384e310000000000000000000000000000000000000000000000000000000081526004016111ad9061272d565b60405180910390fd5b50565b5f5f5f9054906101000a900473ffffffffffffffffffffffffffffffffffffffff169050815f5f6101000a81548173ffffffffffffffffffffffffffffffffffffffff021916908373ffffffffffffffffffffffffffffffffffffffff1602179055508173ffffffffffffffffffffffffffffffffffffffff168173ffffffffffffffffffffffffffffffffffffffff167f8be0079c531659141344cd1fd0a4f28419497f9722a3daafe3b4186f6b6457e060405160405180910390a35050565b5f33905090565b6040518061012001604052805f8152602001606081526020015f151581526020015f81526020015f81526020015f81526020015f81526020015f73ffffffffffffffffffffffffffffffffffffffff168152602001606081525090565b5f604051905090565b5f5ffd5b5f5ffd5b5f819050919050565b611301816112ef565b811461130b575f5ffd5b50565b5f8135905061131c816112f8565b92915050565b5f60208284031215611337576113366112e7565b5b5f6113448482850161130e565b91505092915050565b611356816112ef565b82525050565b5f81519050919050565b5f82825260208201905092915050565b8281835e5f83830152505050565b5f601f19601f8301169050919050565b5f61139e8261135c565b6113a88185611366565b93506113b8818560208601611376565b6113c181611384565b840191505092915050565b5f8115159050919050565b6113e0816113cc565b82525050565b5f73ffffffffffffffffffffffffffffffffffffffff82169050919050565b5f61140f826113e6565b9050919050565b61141f81611405565b82525050565b5f81519050919050565b5f82825260208201905092915050565b5f61144982611425565b611453818561142f565b9350611463818560208601611376565b61146c81611384565b840191505092915050565b5f6101208201905061148b5f83018c61134d565b818103602083015261149d818b611394565b90506114ac604083018a6113d7565b6114b9606083018961134d565b6114c6608083018861134d565b6114d360a083018761134d565b6114e060c083018661134d565b6114ed60e0830185611416565b818103610100830152611500818461143f565b90509a9950505050505050505050565b5f5ffd5b5f5ffd5b7f4e487b71000000000000000000000000000000000000000000000000000000005f52604160045260245ffd5b61154e82611384565b810181811067ffffffffffffffff8211171561156d5761156c611518565b5b80604052505050565b5f61157f6112de565b905061158b8282611545565b919050565b5f67ffffffffffffffff8211156115aa576115a9611518565b5b6115b382611384565b9050602081019050919050565b828183375f83830152505050565b5f6115e06115db84611590565b611576565b9050828152602081018484840111156115fc576115fb611514565b5b6116078482856115c0565b509392505050565b5f82601f83011261162357611622611510565b5b81356116338482602086016115ce565b91505092915050565b61164581611405565b811461164f575f5ffd5b50565b5f813590506116608161163c565b92915050565b5f5ffd5b5f5ffd5b5f5f83601f84011261168357611682611510565b5b8235905067ffffffffffffffff8111156116a05761169f611666565b5b6020830191508360018202830111156116bc576116bb61166a565b5b9250929050565b5f5f5f5f606085870312156116db576116da6112e7565b5b5f85013567ffffffffffffffff8111156116f8576116f76112eb565b5b6117048782880161160f565b945050602061171587828801611652565b935050604085013567ffffffffffffffff811115611736576117356112eb565b5b6117428782880161166e565b925092505092959194509250565b5f819050919050565b5f61177361176e611769846113e6565b611750565b6113e6565b9050919050565b5f61178482611759565b9050919050565b5f6117958261177a565b9050919050565b6117a58161178b565b82525050565b5f6020820190506117be5f83018461179c565b92915050565b5f5f604083850312156117da576117d96112e7565b5b5f6117e78582860161130e565b92505060206117f885828601611652565b9150509250929050565b5f6020820190506118155f8301846113d7565b92915050565b5f60208201905061182e5f830184611416565b92915050565b5f6020820190506118475f83018461134d565b92915050565b611856816112ef565b82525050565b5f82825260208201905092915050565b5f6118768261135c565b611880818561185c565b9350611890818560208601611376565b61189981611384565b840191505092915050565b6118ad816113cc565b82525050565b6118bc81611405565b82525050565b5f82825260208201905092915050565b5f6118dc82611425565b6118e681856118c2565b93506118f6818560208601611376565b6118ff81611384565b840191505092915050565b5f61012083015f8301516119205f86018261184d565b5060208301518482036020860152611938828261186c565b915050604083015161194d60408601826118a4565b506060830151611960606086018261184d565b506080830151611973608086018261184d565b5060a083015161198660a086018261184d565b5060c083015161199960c086018261184d565b5060e08301516119ac60e08601826118b3565b506101008301518482036101008601526119c682826118d2565b9150508091505092915050565b5f6020820190508181035f8301526119eb818461190a565b905092915050565b5f60ff82169050919050565b611a08816119f3565b8114611a12575f5ffd5b50565b5f81359050611a23816119ff565b92915050565b5f5f60408385031215611a3f57611a3e6112e7565b5b5f611a4c8582860161130e565b9250506020611a5d85828601611a15565b9150509250929050565b5f60208284031215611a7c57611a7b6112e7565b5b5f611a8984828501611652565b91505092915050565b7f4e487b71000000000000000000000000000000000000000000000000000000005f52602260045260245ffd5b5f6002820490506001821680611ad657607f821691505b602082108103611ae957611ae8611a92565b5b50919050565b5f81905092915050565b5f819050815f5260205f209050919050565b5f8154611b1781611abf565b611b218186611aef565b9450600182165f8114611b3b5760018114611b5057611b82565b60ff1983168652811515820286019350611b82565b611b5985611af9565b5f5b83811015611b7a57815481890152600182019150602081019050611b5b565b838801955050505b50505092915050565b5f611b968284611b0b565b915081905092915050565b7f50726f706f73616c20657865637574696f6e206661696c6564000000000000005f82015250565b5f611bd5601983611366565b9150611be082611ba1565b602082019050919050565b5f6020820190508181035f830152611c0281611bc9565b9050919050565b5f819050815f5260205f209050919050565b5f8154611c2781611abf565b611c318186611366565b9450600182165f8114611c4b5760018114611c6157611c93565b60ff198316865281151560200286019350611c93565b611c6a85611c09565b5f5b83811015611c8b57815481890152600182019150602081019050611c6c565b808801955050505b50505092915050565b5f604082019050611caf5f83018561134d565b8181036020830152611cc18184611c1b565b90509392505050565b7f4465736372697074696f6e2063616e6e6f7420626520656d70747900000000005f82015250565b5f611cfe601b83611366565b9150611d0982611cca565b602082019050919050565b5f6020820190508181035f830152611d2b81611cf2565b9050919050565b7f496e76616c6964207461726765742061646472657373000000000000000000005f82015250565b5f611d66601683611366565b9150611d7182611d32565b602082019050919050565b5f6020820190508181035f830152611d9381611d5a565b9050919050565b7f43616c6c20646174612063616e6e6f7420626520656d707479000000000000005f82015250565b5f611dce601983611366565b9150611dd982611d9a565b602082019050919050565b5f6020820190508181035f830152611dfb81611dc2565b9050919050565b7f4e487b71000000000000000000000000000000000000000000000000000000005f52601160045260245ffd5b5f611e39826112ef565b91507fffffffffffffffffffffffffffffffffffffffffffffffffffffffffffffffff8203611e6b57611e6a611e02565b5b600182019050919050565b5f611e80826112ef565b9150611e8b836112ef565b9250828201905080821115611ea357611ea2611e02565b5b92915050565b5f6020601f8301049050919050565b5f82821b905092915050565b5f60088302611ef37fffffffffffffffffffffffffffffffffffffffffffffffffffffffffffffffff82611eb8565b611efd8683611eb8565b95508019841693508086168417925050509392505050565b5f611f2f611f2a611f25846112ef565b611750565b6112ef565b9050919050565b5f819050919050565b611f4883611f15565b611f5c611f5482611f36565b848454611ec4565b825550505050565b5f5f905090565b611f73611f64565b611f7e818484611f3f565b505050565b5b81811015611fa157611f965f82611f6b565b600181019050611f84565b5050565b601f821115611fe657611fb781611c09565b611fc084611ea9565b81016020851015611fcf578190505b611fe3611fdb85611ea9565b830182611f83565b50505b505050565b5f82821c905092915050565b5f6120065f1984600802611feb565b1980831691505092915050565b5f61201e8383611ff7565b9150826002028217905092915050565b6120378261135c565b67ffffffffffffffff8111156120505761204f611518565b5b61205a8254611abf565b612065828285611fa5565b5f60209050601f831160018114612096575f8415612084578287015190505b61208e8582612013565b8655506120f5565b601f1984166120a486611c09565b5f5b828110156120cb578489015182556001820191506020850194506020810190506120a6565b868310156120e857848901516120e4601f891682611ff7565b8355505b6001600288020188555050505b505050505050565b601f82111561213e5761210f81611af9565b61211884611ea9565b81016020851015612127578190505b61213b61213385611ea9565b830182611f83565b50505b505050565b61214c82611425565b67ffffffffffffffff81111561216557612164611518565b5b61216f8254611abf565b61217a8282856120fd565b5f60209050601f8311600181146121ab575f8415612199578287015190505b6121a38582612013565b86555061220a565b601f1984166121b986611af9565b5f5b828110156121e0578489015182556001820191506020850194506020810190506121bb565b868310156121fd57848901516121f9601f891682611ff7565b8355505b6001600288020188555050505b505050505050565b5f6060820190506122255f83018661134d565b81810360208301526122378185611394565b9050612246604083018461134d565b949350505050565b7f566f74696e6720706572696f642068617320656e6465640000000000000000005f82015250565b5f612282601783611366565b915061228d8261224e565b602082019050919050565b5f6020820190508181035f8301526122af81612276565b9050919050565b7f416c726561647920766f746564206f6e20746869732070726f706f73616c00005f82015250565b5f6122ea601e83611366565b91506122f5826122b6565b602082019050919050565b5f6020820190508181035f830152612317816122de565b9050919050565b5f8151905061232c816112f8565b92915050565b5f60208284031215612347576123466112e7565b5b5f6123548482850161231e565b91505092915050565b7f4e6f20676f7665726e616e636520746f6b656e7320746f20766f7465207769745f8201527f6800000000000000000000000000000000000000000000000000000000000000602082015250565b5f6123b7602183611366565b91506123c28261235d565b604082019050919050565b5f6020820190508181035f8301526123e4816123ab565b9050919050565b7f496e76616c696420766f7465206f7074696f6e000000000000000000000000005f82015250565b5f61241f601383611366565b915061242a826123eb565b602082019050919050565b5f6020820190508181035f83015261244c81612413565b9050919050565b61245c816119f3565b82525050565b5f6080820190506124755f83018761134d565b6124826020830186611416565b61248f6040830185612453565b61249c606083018461134d565b95945050505050565b7f50726f706f73616c20616c7265616479206578656375746564000000000000005f82015250565b5f6124d9601983611366565b91506124e4826124a5565b602082019050919050565b5f6020820190508181035f830152612506816124cd565b9050919050565b7f566f74696e6720706572696f64206973206e6f7420656e6465640000000000005f82015250565b5f612541601a83611366565b915061254c8261250d565b602082019050919050565b5f6020820190508181035f83015261256e81612535565b9050919050565b5f61257f826112ef565b915061258a836112ef565b9250828202612598816112ef565b915082820484148315176125af576125ae611e02565b5b5092915050565b7f4e487b71000000000000000000000000000000000000000000000000000000005f52601260045260245ffd5b5f6125ed826112ef565b91506125f8836112ef565b925082612608576126076125b6565b5b828204905092915050565b7f51756f72756d206e6f74207265616368656400000000000000000000000000005f82015250565b5f612647601283611366565b915061265282612613565b602082019050919050565b5f6020820190508181035f8301526126748161263b565b9050919050565b7f50726f706f73616c20646964206e6f74207061737300000000000000000000005f82015250565b5f6126af601583611366565b91506126ba8261267b565b602082019050919050565b5f6020820190508181035f8301526126dc816126a3565b9050919050565b7f50726f706f73616c20646f6573206e6f742065786973740000000000000000005f82015250565b5f612717601783611366565b9150612722826126e3565b602082019050919050565b5f6020820190508181035f8301526127448161270b565b905091905056fea26469706673582212207d5549aacd4a2f2eca04db78ff7bfa31b83d077b7e18892965beacbb959d6f9a64736f6c634300081e0033",
    "linkReferences": {}
  },
  "methodIdentifiers": {
    "GOVERNANCE_TOKEN()": "2efd46d6",
    "QUORUM_PERCENTAGE()": "ee8a7c15",
    "VOTING_DURATION()": "a438d208",
    "createProposal(string,address,bytes)": "2821ff26",
    "executeProposal(uint256)": "0d61b519",
    "getProposal(uint256)": "c7f758a8",
    "hasVoted(uint256,address)": "43859632",
    "owner()": "8da5cb5b",
    "proposalCanBeExecuted(uint256)": "fc71e284",
    "proposalCount()": "da35c664",
    "proposals(uint256)": "013cf08b",
    "renounceOwnership()": "715018a6",
    "transferOwnership(address)": "f2fde38b",
    "voteOnProposal(uint256,uint8)": "efafb22e"
  },
  "id": 20
}